{
  "_format": "hh-sol-artifact-1",
  "contractName": "RoleRegistry",
  "sourceName": "contracts/RoleRegistry.sol",
  "abi": [
    {
      "inputs": [
        {
          "internalType": "address",
          "name": "user",
          "type": "address"
        }
      ],
      "name": "getPatientInfo",
      "outputs": [
        {
          "internalType": "string",
          "name": "name",
          "type": "string"
        },
        {
          "internalType": "uint256",
          "name": "age",
          "type": "uint256"
        },
        {
          "internalType": "string",
          "name": "bloodGroup",
          "type": "string"
        },
        {
          "internalType": "string",
          "name": "contactNumber",
          "type": "string"
        }
      ],
      "stateMutability": "view",
      "type": "function"
    },
    {
      "inputs": [
        {
          "internalType": "address",
          "name": "user",
          "type": "address"
        }
      ],
      "name": "getProviderInfo",
      "outputs": [
        {
          "internalType": "string",
          "name": "name",
          "type": "string"
        },
        {
          "internalType": "string",
          "name": "hospital",
          "type": "string"
        },
        {
          "internalType": "string",
          "name": "specialization",
          "type": "string"
        },
        {
          "internalType": "string",
          "name": "licenseNumber",
          "type": "string"
        },
        {
          "internalType": "string",
          "name": "contactNumber",
          "type": "string"
        }
      ],
      "stateMutability": "view",
      "type": "function"
    },
    {
      "inputs": [
        {
          "internalType": "address",
          "name": "user",
          "type": "address"
        }
      ],
      "name": "getUserRole",
      "outputs": [
        {
          "internalType": "string",
          "name": "",
          "type": "string"
        }
      ],
      "stateMutability": "view",
      "type": "function"
    },
    {
      "inputs": [
        {
          "internalType": "address",
          "name": "",
          "type": "address"
        }
      ],
      "name": "patients",
      "outputs": [
        {
          "internalType": "string",
          "name": "name",
          "type": "string"
        },
        {
          "internalType": "uint256",
          "name": "age",
          "type": "uint256"
        },
        {
          "internalType": "string",
          "name": "bloodGroup",
          "type": "string"
        },
        {
          "internalType": "string",
          "name": "contactNumber",
          "type": "string"
        }
      ],
      "stateMutability": "view",
      "type": "function"
    },
    {
      "inputs": [
        {
          "internalType": "address",
          "name": "",
          "type": "address"
        }
      ],
      "name": "providers",
      "outputs": [
        {
          "internalType": "string",
          "name": "name",
          "type": "string"
        },
        {
          "internalType": "string",
          "name": "hospital",
          "type": "string"
        },
        {
          "internalType": "string",
          "name": "specialization",
          "type": "string"
        },
        {
          "internalType": "string",
          "name": "licenseNumber",
          "type": "string"
        },
        {
          "internalType": "string",
          "name": "contactNumber",
          "type": "string"
        }
      ],
      "stateMutability": "view",
      "type": "function"
    },
    {
      "inputs": [
        {
          "internalType": "string",
          "name": "_name",
          "type": "string"
        },
        {
          "internalType": "uint256",
          "name": "_age",
          "type": "uint256"
        },
        {
          "internalType": "string",
          "name": "_bloodGroup",
          "type": "string"
        },
        {
          "internalType": "string",
          "name": "_contactNumber",
          "type": "string"
        }
      ],
      "name": "registerPatient",
      "outputs": [],
      "stateMutability": "nonpayable",
      "type": "function"
    },
    {
      "inputs": [
        {
          "internalType": "string",
          "name": "_name",
          "type": "string"
        },
        {
          "internalType": "string",
          "name": "_hospital",
          "type": "string"
        },
        {
          "internalType": "string",
          "name": "_specialization",
          "type": "string"
        },
        {
          "internalType": "string",
          "name": "_licenseNumber",
          "type": "string"
        },
        {
          "internalType": "string",
          "name": "_contactNumber",
          "type": "string"
        }
      ],
      "name": "registerProvider",
      "outputs": [],
      "stateMutability": "nonpayable",
      "type": "function"
    },
    {
      "inputs": [
        {
          "internalType": "address",
          "name": "",
          "type": "address"
        }
      ],
      "name": "userRoles",
      "outputs": [
        {
          "internalType": "enum RoleRegistry.Role",
          "name": "",
          "type": "uint8"
        }
      ],
      "stateMutability": "view",
      "type": "function"
    }
  ],
  "bytecode": "0x6080604052348015600f57600080fd5b50611ce78061001f6000396000f3fe608060405234801561001057600080fd5b50600436106100885760003560e01c806374d5e1001161005b57806374d5e100146101575780637583902f14610187578063bcb0ad3c146101bb578063fa2323d2146101d757610088565b80630787bc271461008d5780630869cfbc146100c157806327820851146100f45780634b42617814610124575b600080fd5b6100a760048036038101906100a29190611312565b6101f3565b6040516100b89594939291906113cf565b60405180910390f35b6100db60048036038101906100d69190611312565b6104d1565b6040516100eb949392919061145e565b60405180910390f35b61010e60048036038101906101099190611312565b610699565b60405161011b91906114b8565b60405180910390f35b61013e60048036038101906101399190611312565b61081a565b60405161014e949392919061145e565b60405180910390f35b610171600480360381019061016c9190611312565b610adb565b60405161017e9190611551565b60405180910390f35b6101a1600480360381019061019c9190611312565b610afb565b6040516101b29594939291906113cf565b60405180910390f35b6101d560048036038101906101d091906116a1565b610edb565b005b6101f160048036038101906101ec91906117d4565b6110d2565b005b6002602052806000526040600020600091509050806000018054610216906118be565b80601f0160208091040260200160405190810160405280929190818152602001828054610242906118be565b801561028f5780601f106102645761010080835404028352916020019161028f565b820191906000526020600020905b81548152906001019060200180831161027257829003601f168201915b5050505050908060010180546102a4906118be565b80601f01602080910402602001604051908101604052809291908181526020018280546102d0906118be565b801561031d5780601f106102f25761010080835404028352916020019161031d565b820191906000526020600020905b81548152906001019060200180831161030057829003601f168201915b505050505090806002018054610332906118be565b80601f016020809104026020016040519081016040528092919081815260200182805461035e906118be565b80156103ab5780601f10610380576101008083540402835291602001916103ab565b820191906000526020600020905b81548152906001019060200180831161038e57829003601f168201915b5050505050908060030180546103c0906118be565b80601f01602080910402602001604051908101604052809291908181526020018280546103ec906118be565b80156104395780601f1061040e57610100808354040283529160200191610439565b820191906000526020600020905b81548152906001019060200180831161041c57829003601f168201915b50505050509080600401805461044e906118be565b80601f016020809104026020016040519081016040528092919081815260200182805461047a906118be565b80156104c75780601f1061049c576101008083540402835291602001916104c7565b820191906000526020600020905b8154815290600101906020018083116104aa57829003601f168201915b5050505050905085565b60016020528060005260406000206000915090508060000180546104f4906118be565b80601f0160208091040260200160405190810160405280929190818152602001828054610520906118be565b801561056d5780601f106105425761010080835404028352916020019161056d565b820191906000526020600020905b81548152906001019060200180831161055057829003601f168201915b505050505090806001015490806002018054610588906118be565b80601f01602080910402602001604051908101604052809291908181526020018280546105b4906118be565b80156106015780601f106105d657610100808354040283529160200191610601565b820191906000526020600020905b8154815290600101906020018083116105e457829003601f168201915b505050505090806003018054610616906118be565b80601f0160208091040260200160405190810160405280929190818152602001828054610642906118be565b801561068f5780601f106106645761010080835404028352916020019161068f565b820191906000526020600020905b81548152906001019060200180831161067257829003601f168201915b5050505050905084565b6060600160028111156106af576106ae6114da565b5b6000808473ffffffffffffffffffffffffffffffffffffffff1673ffffffffffffffffffffffffffffffffffffffff16815260200190815260200160002060009054906101000a900460ff16600281111561070d5761070c6114da565b5b0361074f576040518060400160405280600781526020017f70617469656e74000000000000000000000000000000000000000000000000008152509050610815565b600280811115610762576107616114da565b5b6000808473ffffffffffffffffffffffffffffffffffffffff1673ffffffffffffffffffffffffffffffffffffffff16815260200190815260200160002060009054906101000a900460ff1660028111156107c0576107bf6114da565b5b03610802576040518060400160405280600881526020017f70726f76696465720000000000000000000000000000000000000000000000008152509050610815565b6040518060200160405280600081525090505b919050565b6060600060608060016002811115610835576108346114da565b5b6000808773ffffffffffffffffffffffffffffffffffffffff1673ffffffffffffffffffffffffffffffffffffffff16815260200190815260200160002060009054906101000a900460ff166002811115610893576108926114da565b5b146108d3576040517f08c379a00000000000000000000000000000000000000000000000000000000081526004016108ca9061193b565b60405180910390fd5b6000600160008773ffffffffffffffffffffffffffffffffffffffff1673ffffffffffffffffffffffffffffffffffffffff16815260200190815260200160002090508060000181600101548260020183600301838054610933906118be565b80601f016020809104026020016040519081016040528092919081815260200182805461095f906118be565b80156109ac5780601f10610981576101008083540402835291602001916109ac565b820191906000526020600020905b81548152906001019060200180831161098f57829003601f168201915b505050505093508180546109bf906118be565b80601f01602080910402602001604051908101604052809291908181526020018280546109eb906118be565b8015610a385780601f10610a0d57610100808354040283529160200191610a38565b820191906000526020600020905b815481529060010190602001808311610a1b57829003601f168201915b50505050509150808054610a4b906118be565b80601f0160208091040260200160405190810160405280929190818152602001828054610a77906118be565b8015610ac45780601f10610a9957610100808354040283529160200191610ac4565b820191906000526020600020905b815481529060010190602001808311610aa757829003601f168201915b505050505090509450945094509450509193509193565b60006020528060005260406000206000915054906101000a900460ff1681565b6060806060806060600280811115610b1657610b156114da565b5b6000808873ffffffffffffffffffffffffffffffffffffffff1673ffffffffffffffffffffffffffffffffffffffff16815260200190815260200160002060009054906101000a900460ff166002811115610b7457610b736114da565b5b14610bb4576040517f08c379a0000000000000000000000000000000000000000000000000000000008152600401610bab906119a7565b60405180910390fd5b6000600260008873ffffffffffffffffffffffffffffffffffffffff1673ffffffffffffffffffffffffffffffffffffffff16815260200190815260200160002090508060000181600101826002018360030184600401848054610c17906118be565b80601f0160208091040260200160405190810160405280929190818152602001828054610c43906118be565b8015610c905780601f10610c6557610100808354040283529160200191610c90565b820191906000526020600020905b815481529060010190602001808311610c7357829003601f168201915b50505050509450838054610ca3906118be565b80601f0160208091040260200160405190810160405280929190818152602001828054610ccf906118be565b8015610d1c5780601f10610cf157610100808354040283529160200191610d1c565b820191906000526020600020905b815481529060010190602001808311610cff57829003601f168201915b50505050509350828054610d2f906118be565b80601f0160208091040260200160405190810160405280929190818152602001828054610d5b906118be565b8015610da85780601f10610d7d57610100808354040283529160200191610da8565b820191906000526020600020905b815481529060010190602001808311610d8b57829003601f168201915b50505050509250818054610dbb906118be565b80601f0160208091040260200160405190810160405280929190818152602001828054610de7906118be565b8015610e345780601f10610e0957610100808354040283529160200191610e34565b820191906000526020600020905b815481529060010190602001808311610e1757829003601f168201915b50505050509150808054610e47906118be565b80601f0160208091040260200160405190810160405280929190818152602001828054610e73906118be565b8015610ec05780601f10610e9557610100808354040283529160200191610ec0565b820191906000526020600020905b815481529060010190602001808311610ea357829003601f168201915b50505050509050955095509550955095505091939590929450565b60006002811115610eef57610eee6114da565b5b6000803373ffffffffffffffffffffffffffffffffffffffff1673ffffffffffffffffffffffffffffffffffffffff16815260200190815260200160002060009054906101000a900460ff166002811115610f4d57610f4c6114da565b5b14610f8d576040517f08c379a0000000000000000000000000000000000000000000000000000000008152600401610f8490611a13565b60405180910390fd5b6040518060a0016040528086815260200185815260200184815260200183815260200182815250600260003373ffffffffffffffffffffffffffffffffffffffff1673ffffffffffffffffffffffffffffffffffffffff16815260200190815260200160002060008201518160000190816110089190611bdf565b50602082015181600101908161101e9190611bdf565b5060408201518160020190816110349190611bdf565b50606082015181600301908161104a9190611bdf565b5060808201518160040190816110609190611bdf565b5090505060026000803373ffffffffffffffffffffffffffffffffffffffff1673ffffffffffffffffffffffffffffffffffffffff16815260200190815260200160002060006101000a81548160ff021916908360028111156110c6576110c56114da565b5b02179055505050505050565b600060028111156110e6576110e56114da565b5b6000803373ffffffffffffffffffffffffffffffffffffffff1673ffffffffffffffffffffffffffffffffffffffff16815260200190815260200160002060009054906101000a900460ff166002811115611144576111436114da565b5b14611184576040517f08c379a000000000000000000000000000000000000000000000000000000000815260040161117b90611a13565b60405180910390fd5b604051806080016040528085815260200184815260200183815260200182815250600160003373ffffffffffffffffffffffffffffffffffffffff1673ffffffffffffffffffffffffffffffffffffffff16815260200190815260200160002060008201518160000190816111f99190611bdf565b506020820151816001015560408201518160020190816112199190611bdf565b50606082015181600301908161122f9190611bdf565b5090505060016000803373ffffffffffffffffffffffffffffffffffffffff1673ffffffffffffffffffffffffffffffffffffffff16815260200190815260200160002060006101000a81548160ff02191690836002811115611295576112946114da565b5b021790555050505050565b6000604051905090565b600080fd5b600080fd5b600073ffffffffffffffffffffffffffffffffffffffff82169050919050565b60006112df826112b4565b9050919050565b6112ef816112d4565b81146112fa57600080fd5b50565b60008135905061130c816112e6565b92915050565b600060208284031215611328576113276112aa565b5b6000611336848285016112fd565b91505092915050565b600081519050919050565b600082825260208201905092915050565b60005b8381101561137957808201518184015260208101905061135e565b60008484015250505050565b6000601f19601f8301169050919050565b60006113a18261133f565b6113ab818561134a565b93506113bb81856020860161135b565b6113c481611385565b840191505092915050565b600060a08201905081810360008301526113e98188611396565b905081810360208301526113fd8187611396565b905081810360408301526114118186611396565b905081810360608301526114258185611396565b905081810360808301526114398184611396565b90509695505050505050565b6000819050919050565b61145881611445565b82525050565b600060808201905081810360008301526114788187611396565b9050611487602083018661144f565b81810360408301526114998185611396565b905081810360608301526114ad8184611396565b905095945050505050565b600060208201905081810360008301526114d28184611396565b905092915050565b7f4e487b7100000000000000000000000000000000000000000000000000000000600052602160045260246000fd5b6003811061151a576115196114da565b5b50565b600081905061152b82611509565b919050565b600061153b8261151d565b9050919050565b61154b81611530565b82525050565b60006020820190506115666000830184611542565b92915050565b600080fd5b600080fd5b7f4e487b7100000000000000000000000000000000000000000000000000000000600052604160045260246000fd5b6115ae82611385565b810181811067ffffffffffffffff821117156115cd576115cc611576565b5b80604052505050565b60006115e06112a0565b90506115ec82826115a5565b919050565b600067ffffffffffffffff82111561160c5761160b611576565b5b61161582611385565b9050602081019050919050565b82818337600083830152505050565b600061164461163f846115f1565b6115d6565b9050828152602081018484840111156116605761165f611571565b5b61166b848285611622565b509392505050565b600082601f8301126116885761168761156c565b5b8135611698848260208601611631565b91505092915050565b600080600080600060a086880312156116bd576116bc6112aa565b5b600086013567ffffffffffffffff8111156116db576116da6112af565b5b6116e788828901611673565b955050602086013567ffffffffffffffff811115611708576117076112af565b5b61171488828901611673565b945050604086013567ffffffffffffffff811115611735576117346112af565b5b61174188828901611673565b935050606086013567ffffffffffffffff811115611762576117616112af565b5b61176e88828901611673565b925050608086013567ffffffffffffffff81111561178f5761178e6112af565b5b61179b88828901611673565b9150509295509295909350565b6117b181611445565b81146117bc57600080fd5b50565b6000813590506117ce816117a8565b92915050565b600080600080608085870312156117ee576117ed6112aa565b5b600085013567ffffffffffffffff81111561180c5761180b6112af565b5b61181887828801611673565b9450506020611829878288016117bf565b935050604085013567ffffffffffffffff81111561184a576118496112af565b5b61185687828801611673565b925050606085013567ffffffffffffffff811115611877576118766112af565b5b61188387828801611673565b91505092959194509250565b7f4e487b7100000000000000000000000000000000000000000000000000000000600052602260045260246000fd5b600060028204905060018216806118d657607f821691505b6020821081036118e9576118e861188f565b5b50919050565b7f4e6f7420612070617469656e7400000000000000000000000000000000000000600082015250565b6000611925600d8361134a565b9150611930826118ef565b602082019050919050565b6000602082019050818103600083015261195481611918565b9050919050565b7f4e6f7420612070726f7669646572000000000000000000000000000000000000600082015250565b6000611991600e8361134a565b915061199c8261195b565b602082019050919050565b600060208201905081810360008301526119c081611984565b9050919050565b7f416c726561647920726567697374657265640000000000000000000000000000600082015250565b60006119fd60128361134a565b9150611a08826119c7565b602082019050919050565b60006020820190508181036000830152611a2c816119f0565b9050919050565b60008190508160005260206000209050919050565b60006020601f8301049050919050565b600082821b905092915050565b600060088302611a957fffffffffffffffffffffffffffffffffffffffffffffffffffffffffffffffff82611a58565b611a9f8683611a58565b95508019841693508086168417925050509392505050565b6000819050919050565b6000611adc611ad7611ad284611445565b611ab7565b611445565b9050919050565b6000819050919050565b611af683611ac1565b611b0a611b0282611ae3565b848454611a65565b825550505050565b600090565b611b1f611b12565b611b2a818484611aed565b505050565b5b81811015611b4e57611b43600082611b17565b600181019050611b30565b5050565b601f821115611b9357611b6481611a33565b611b6d84611a48565b81016020851015611b7c578190505b611b90611b8885611a48565b830182611b2f565b50505b505050565b600082821c905092915050565b6000611bb660001984600802611b98565b1980831691505092915050565b6000611bcf8383611ba5565b9150826002028217905092915050565b611be88261133f565b67ffffffffffffffff811115611c0157611c00611576565b5b611c0b82546118be565b611c16828285611b52565b600060209050601f831160018114611c495760008415611c37578287015190505b611c418582611bc3565b865550611ca9565b601f198416611c5786611a33565b60005b82811015611c7f57848901518255600182019150602085019450602081019050611c5a565b86831015611c9c5784890151611c98601f891682611ba5565b8355505b6001600288020188555050505b50505050505056fea264697066735822122061b59f21e466cde7935291b94b643c740d36d1a3ba1747796b22c0b2cc52b7d564736f6c634300081c0033",
  "linkReferences": {},
  "deployedLinkReferences": {}
}