{
  "_format": "hh-sol-artifact-1",
  "contractName": "MedicalRecordsStorage",
  "sourceName": "contracts/MedicalRecordsStorage.sol",
  "abi": [
    {
      "anonymous": false,
      "inputs": [
        {
          "indexed": true,
          "internalType": "uint256",
          "name": "recordId",
          "type": "uint256"
        },
        {
          "indexed": true,
          "internalType": "address",
          "name": "uploader",
          "type": "address"
        },
        {
          "indexed": false,
          "internalType": "string",
          "name": "title",
          "type": "string"
        },
        {
          "indexed": false,
          "internalType": "string",
          "name": "ipfsUrl",
          "type": "string"
        }
      ],
      "name": "RecordUploaded",
      "type": "event"
    },
    {
      "inputs": [
        {
          "internalType": "uint256",
          "name": "_index",
          "type": "uint256"
        }
      ],
      "name": "getRecord",
      "outputs": [
        {
          "internalType": "string",
          "name": "title",
          "type": "string"
        },
        {
          "internalType": "string",
          "name": "date",
          "type": "string"
        },
        {
          "internalType": "string",
          "name": "recordType",
          "type": "string"
        },
        {
          "internalType": "string",
          "name": "description",
          "type": "string"
        },
        {
          "internalType": "string",
          "name": "ipfsUrl",
          "type": "string"
        },
        {
          "internalType": "address",
          "name": "uploader",
          "type": "address"
        }
      ],
      "stateMutability": "view",
      "type": "function"
    },
    {
      "inputs": [
        {
          "internalType": "address",
          "name": "_uploader",
          "type": "address"
        }
      ],
      "name": "getRecordsByUploader",
      "outputs": [
        {
          "internalType": "uint256[]",
          "name": "",
          "type": "uint256[]"
        }
      ],
      "stateMutability": "view",
      "type": "function"
    },
    {
      "inputs": [],
      "name": "getRecordsCount",
      "outputs": [
        {
          "internalType": "uint256",
          "name": "",
          "type": "uint256"
        }
      ],
      "stateMutability": "view",
      "type": "function"
    },
    {
      "inputs": [
        {
          "internalType": "string",
          "name": "_title",
          "type": "string"
        },
        {
          "internalType": "string",
          "name": "_date",
          "type": "string"
        },
        {
          "internalType": "string",
          "name": "_recordType",
          "type": "string"
        },
        {
          "internalType": "string",
          "name": "_description",
          "type": "string"
        },
        {
          "internalType": "string",
          "name": "_ipfsUrl",
          "type": "string"
        }
      ],
      "name": "uploadRecord",
      "outputs": [],
      "stateMutability": "nonpayable",
      "type": "function"
    }
  ],
  "bytecode": "0x6080604052348015600f57600080fd5b506111cc8061001f6000396000f3fe608060405234801561001057600080fd5b506004361061004c5760003560e01c806303e9e609146100515780631b0216fd14610086578063505158bb146100b65780635e143bd4146100d4575b600080fd5b61006b6004803603810190610066919061081a565b6100f0565b60405161007d96959493929190610918565b60405180910390f35b6100a0600480360381019061009b91906109c8565b610470565b6040516100ad9190610ab3565b60405180910390f35b6100be610636565b6040516100cb9190610ae4565b60405180910390f35b6100ee60048036038101906100e99190610c34565b610642565b005b6060806060806060600080805490508710610140576040517f08c379a000000000000000000000000000000000000000000000000000000000815260040161013790610d87565b60405180910390fd5b600080888154811061015557610154610da7565b5b9060005260206000209060060201905080600001816001018260020183600301846004018560050160009054906101000a900473ffffffffffffffffffffffffffffffffffffffff168580546101aa90610e05565b80601f01602080910402602001604051908101604052809291908181526020018280546101d690610e05565b80156102235780601f106101f857610100808354040283529160200191610223565b820191906000526020600020905b81548152906001019060200180831161020657829003601f168201915b5050505050955084805461023690610e05565b80601f016020809104026020016040519081016040528092919081815260200182805461026290610e05565b80156102af5780601f10610284576101008083540402835291602001916102af565b820191906000526020600020905b81548152906001019060200180831161029257829003601f168201915b505050505094508380546102c290610e05565b80601f01602080910402602001604051908101604052809291908181526020018280546102ee90610e05565b801561033b5780601f106103105761010080835404028352916020019161033b565b820191906000526020600020905b81548152906001019060200180831161031e57829003601f168201915b5050505050935082805461034e90610e05565b80601f016020809104026020016040519081016040528092919081815260200182805461037a90610e05565b80156103c75780601f1061039c576101008083540402835291602001916103c7565b820191906000526020600020905b8154815290600101906020018083116103aa57829003601f168201915b505050505092508180546103da90610e05565b80601f016020809104026020016040519081016040528092919081815260200182805461040690610e05565b80156104535780601f1061042857610100808354040283529160200191610453565b820191906000526020600020905b81548152906001019060200180831161043657829003601f168201915b505050505091509650965096509650965096505091939550919395565b60606000805b600080549050811015610517578373ffffffffffffffffffffffffffffffffffffffff16600082815481106104ae576104ad610da7565b5b906000526020600020906006020160050160009054906101000a900473ffffffffffffffffffffffffffffffffffffffff1673ffffffffffffffffffffffffffffffffffffffff160361050a57818061050690610e65565b9250505b8080600101915050610476565b5060008167ffffffffffffffff81111561053457610533610b09565b5b6040519080825280602002602001820160405280156105625781602001602082028036833780820191505090505b5090506000805b60008054905081101561062a578573ffffffffffffffffffffffffffffffffffffffff16600082815481106105a1576105a0610da7565b5b906000526020600020906006020160050160009054906101000a900473ffffffffffffffffffffffffffffffffffffffff1673ffffffffffffffffffffffffffffffffffffffff160361061d578083838151811061060257610601610da7565b5b602002602001018181525050818061061990610e65565b9250505b8080600101915050610569565b50819350505050919050565b60008080549050905090565b60006040518060c001604052808781526020018681526020018581526020018481526020018381526020013373ffffffffffffffffffffffffffffffffffffffff16815250908060018154018082558091505060019003906000526020600020906006020160009091909190915060008201518160000190816106c59190611059565b5060208201518160010190816106db9190611059565b5060408201518160020190816106f19190611059565b5060608201518160030190816107079190611059565b50608082015181600401908161071d9190611059565b5060a08201518160050160006101000a81548173ffffffffffffffffffffffffffffffffffffffff021916908373ffffffffffffffffffffffffffffffffffffffff16021790555050503373ffffffffffffffffffffffffffffffffffffffff166001600080549050610790919061112b565b7f14b39f162268702d9e9a6c8d7fa260ef7e403830ecd08ff0375ab71dfa79c84687846040516107c192919061115f565b60405180910390a35050505050565b6000604051905090565b600080fd5b600080fd5b6000819050919050565b6107f7816107e4565b811461080257600080fd5b50565b600081359050610814816107ee565b92915050565b6000602082840312156108305761082f6107da565b5b600061083e84828501610805565b91505092915050565b600081519050919050565b600082825260208201905092915050565b60005b83811015610881578082015181840152602081019050610866565b60008484015250505050565b6000601f19601f8301169050919050565b60006108a982610847565b6108b38185610852565b93506108c3818560208601610863565b6108cc8161088d565b840191505092915050565b600073ffffffffffffffffffffffffffffffffffffffff82169050919050565b6000610902826108d7565b9050919050565b610912816108f7565b82525050565b600060c0820190508181036000830152610932818961089e565b90508181036020830152610946818861089e565b9050818103604083015261095a818761089e565b9050818103606083015261096e818661089e565b90508181036080830152610982818561089e565b905061099160a0830184610909565b979650505050505050565b6109a5816108f7565b81146109b057600080fd5b50565b6000813590506109c28161099c565b92915050565b6000602082840312156109de576109dd6107da565b5b60006109ec848285016109b3565b91505092915050565b600081519050919050565b600082825260208201905092915050565b6000819050602082019050919050565b610a2a816107e4565b82525050565b6000610a3c8383610a21565b60208301905092915050565b6000602082019050919050565b6000610a60826109f5565b610a6a8185610a00565b9350610a7583610a11565b8060005b83811015610aa6578151610a8d8882610a30565b9750610a9883610a48565b925050600181019050610a79565b5085935050505092915050565b60006020820190508181036000830152610acd8184610a55565b905092915050565b610ade816107e4565b82525050565b6000602082019050610af96000830184610ad5565b92915050565b600080fd5b600080fd5b7f4e487b7100000000000000000000000000000000000000000000000000000000600052604160045260246000fd5b610b418261088d565b810181811067ffffffffffffffff82111715610b6057610b5f610b09565b5b80604052505050565b6000610b736107d0565b9050610b7f8282610b38565b919050565b600067ffffffffffffffff821115610b9f57610b9e610b09565b5b610ba88261088d565b9050602081019050919050565b82818337600083830152505050565b6000610bd7610bd284610b84565b610b69565b905082815260208101848484011115610bf357610bf2610b04565b5b610bfe848285610bb5565b509392505050565b600082601f830112610c1b57610c1a610aff565b5b8135610c2b848260208601610bc4565b91505092915050565b600080600080600060a08688031215610c5057610c4f6107da565b5b600086013567ffffffffffffffff811115610c6e57610c6d6107df565b5b610c7a88828901610c06565b955050602086013567ffffffffffffffff811115610c9b57610c9a6107df565b5b610ca788828901610c06565b945050604086013567ffffffffffffffff811115610cc857610cc76107df565b5b610cd488828901610c06565b935050606086013567ffffffffffffffff811115610cf557610cf46107df565b5b610d0188828901610c06565b925050608086013567ffffffffffffffff811115610d2257610d216107df565b5b610d2e88828901610c06565b9150509295509295909350565b7f496e76616c696420696e64657800000000000000000000000000000000000000600082015250565b6000610d71600d83610852565b9150610d7c82610d3b565b602082019050919050565b60006020820190508181036000830152610da081610d64565b9050919050565b7f4e487b7100000000000000000000000000000000000000000000000000000000600052603260045260246000fd5b7f4e487b7100000000000000000000000000000000000000000000000000000000600052602260045260246000fd5b60006002820490506001821680610e1d57607f821691505b602082108103610e3057610e2f610dd6565b5b50919050565b7f4e487b7100000000000000000000000000000000000000000000000000000000600052601160045260246000fd5b6000610e70826107e4565b91507fffffffffffffffffffffffffffffffffffffffffffffffffffffffffffffffff8203610ea257610ea1610e36565b5b600182019050919050565b60008190508160005260206000209050919050565b60006020601f8301049050919050565b600082821b905092915050565b600060088302610f0f7fffffffffffffffffffffffffffffffffffffffffffffffffffffffffffffffff82610ed2565b610f198683610ed2565b95508019841693508086168417925050509392505050565b6000819050919050565b6000610f56610f51610f4c846107e4565b610f31565b6107e4565b9050919050565b6000819050919050565b610f7083610f3b565b610f84610f7c82610f5d565b848454610edf565b825550505050565b600090565b610f99610f8c565b610fa4818484610f67565b505050565b5b81811015610fc857610fbd600082610f91565b600181019050610faa565b5050565b601f82111561100d57610fde81610ead565b610fe784610ec2565b81016020851015610ff6578190505b61100a61100285610ec2565b830182610fa9565b50505b505050565b600082821c905092915050565b600061103060001984600802611012565b1980831691505092915050565b6000611049838361101f565b9150826002028217905092915050565b61106282610847565b67ffffffffffffffff81111561107b5761107a610b09565b5b6110858254610e05565b611090828285610fcc565b600060209050601f8311600181146110c357600084156110b1578287015190505b6110bb858261103d565b865550611123565b601f1984166110d186610ead565b60005b828110156110f9578489015182556001820191506020850194506020810190506110d4565b868310156111165784890151611112601f89168261101f565b8355505b6001600288020188555050505b505050505050565b6000611136826107e4565b9150611141836107e4565b925082820390508181111561115957611158610e36565b5b92915050565b60006040820190508181036000830152611179818561089e565b9050818103602083015261118d818461089e565b9050939250505056fea2646970667358221220f769e50a62b68abd0e54717dc7549dbc1700d0aeca6d71ac2f3fa90ca22664dd64736f6c634300081c0033",
  "linkReferences": {},
  "deployedLinkReferences": {}
}